L016457610582997926165OERL791103QN0OERL791103HYNLJS07OLVERA$ROJAS$JOSE LUIS MARTIN                     10010820170000000LI                         00000000 00000000
L016457610505158901545CAMA890828FB5CAMA890828MVZRNN06CARRERA$MENDEZ$ANELY                              10010820170000000LI                         00000000 00000000
L016457610525159828216UIGR9806064F9UIGR980606HYNCND00UICAB$GONZALEZ$RODOLFO                            10030820170008366LI                         00000000 00000000
L016457610558159612801ROCA960526ET8ROCA960526HDFJSR04ROJAS$CASTELLANOS$ARMANDO                         10030820170008366LI                         00000000 00000000
L016457610582824900243VAAE4912012E6VAAE491201HYNLKL19VALENCIA$AKE$ELOY ENRIQUE                         10030820170008366LI                         00000000 00000000
L016457610502157298882CURJ720919GM6CURJ720919MTCRDN01DE LA CRUZ$RODRIGUEZ$JUANA                        10030820170008366LI                         00000000 00000000
L016457610505179243836SAJC920410BEASAJC920410MTCNMN08SANCHEZ$JIMENEZ$MARIA CONCEPCION                  10030820170008366LI                         00000000 00000000
L016457610582106700634GUBA670918KM5GUBA670918MCSRRN08GUIRAO$BERMUDEZ$MARIA DE LOS ANGELES              10030820170008366LI                         00000000 00000000
L016457610557169847860CACJ980127IF9CACJ980127HYNNNN08CAN$CENTENO$JUAN JESUS                            10030820170008366LI                         00000000 00000000
L016457610582038604722CELS8601217Y2CELS860121HQRBZR09CEBALLOS$LIZAMA$SERGIO JOSUE                      10030820170008366LI                         00000000 00000000
L016457610585169782845CACE970122CDACACE970122HYNHHD05CHAN$CHAN$EDWIN GERARDO                           10040820170008366LI                         00000000 00000000
L016457610527179814846OALD980130996OALD980130HVZRRL07ORDAZ$LARA$DILEAN RAFAEL                          10030820170008366LI                         00000000 00000000
L016457610521917132256RAAH710413JH1RAAH710413MOCNLR03RANGEL$ALVAREZ$HERMENEGILDA                       10030820170008366LI                         00000000 00000000
L016457610503178620500AOTM860811874AOTM860811MVZLPR09ALFONSO$TAPIA$MARISELA                            10030820170008366LI                         00000000 00000000
L016457610510179499735OEAM940831EQ1OEAM940831MTCJRL09OJEDA$ARIAS$MAELY DEL CARMEN                      10030820170008366LI                         00000000 00000000
L016457610556149543607VATJ951125753VATJ951125MQRZRQ04VAZQUEZ$TORRES$JAQUELINE                          10030820170008366LI                         00000000 00000000
L016457610508159614935ZATD960306975ZATD960306HCSMRN01ZAMORANO$TRUJILLO$DANIEL                          10030820170008366LI                         00000000 00000000
L016457610502178858268LOLM8803299X1LOLM880329MTCPNR07LOPEZ$LEON$MARISELA                               10100820170008004LI                         00000000 00000000
L016457610558169717368SEGA9709156NASEGA970915HVZGRL02SEGURA$GARCIA$ALFREDO                             10070820170008366LI                         00000000 00000000
L016457610503178106807RAMD810926M93RAMD810926HCSMNN06RAMIREZ$MENDEZ$DANIEL DE JESUS                    10070820170008366LI                         00000000 00000000
L016457610582038336085CAFN830825TU4CAFN830825MQRBRC09CABALLERO$FARJAT$NACIRA MAGDALENA                 10110820170008366LI                         00000000 00000000
L016457610503168866907OERU880329UE9OERU880329HPLRZL08ORTEGA$RUIZ$ULISES                                10070820170008366LI                         00000000 00000000
L016457610581048601744PEDE860118QR0PEDE860118MCCRZL04PERALTA$DZIB$ELIANA ANGELICA                      10070820170008366LI                         00000000 00000000
L016457610505169838074MUCK980314JM1MUCK980314MQRXNT01MU#OZ$CANCHE$KATERIN JAQUELIN                     10070820170008366LI                         00000000 00000000
L016457610582099129916MAMY910802HQ6MAMY910802MQRGLS08MAGA#A$MOLINA$YESSICA ANDREA                      10080820170008366LI                         00000000 00000000
L016457610582997937774PECB791124LW5PECB791124HVZRRR01PEREZ$CRUZ$BERNARDINO                             10080820170008366LI                         00000000 00000000
L016457610582139308231POCH93112742APOCH931127HQRLNB06POOL$CANCHE$HEBER FRANCISCO                       10100820170008366LI                         00000000 00000000
L016457610583988100141FACL811113RPAFACL811113HTCJRS06FAJARDO$DE LA CRUZ$JOSE LUIS                      10070820170008366LI                         00000000 00000000
L016457610545097702869LAOV770101RR8LAOV770101MDFNLN08LANDEROS$OLARTE$VANESA IVONNE                     10070820170008366LI                         00000000 00000000
L016457610510179486906GUCD940914L4AGUCD940914MCCZRL08GUZMAN$CORNELIO$DULCE MARIA                       10070820170008366LI                         00000000 00000000
L016457610574159725600ROSG970408P80ROSG970408HVZDNN02RODRIGUEZ$SANCHEZ$GENEY                           10070820170008366LI                         00000000 00000000
L016457610502169021405RAMH9011123A2RAMH901112HCSMNC00RAMIREZ$MENDEZ$HECTOR MANUEL                      10070820170008366LI                         00000000 00000000
L016457610582068306891RERR830430UN3RERL850828MCSYDY02REYES$RODRIGUEZ$RIGOBERTO                         10070820170008366LI                         00000000 00000000
L016457610505159262426GEBY920522GJ0GEBY920522MQRRRN04GERVACIO$BARRERA$YANET MERELIN                    10090820170008366LI                         00000000 00000000
L016457610582089114431CAMM910708BD8CAMM910708MCCHNG07CHAB$MONTEJO$MARIA MAGDALENA                      10090820170008366LI                         00000000 00000000
L016457610582047702384RACO770224D56RACO770224MCSMRR02RAMIREZ$DE LA CRUZ$ORALIA                         10090820170008366LI                         00000000 00000000
L016457610503179371749JIJA9312312Z8JIJA931231MTCMMN05JIMENEZ$JIMENEZ$ANALLELY                          10090820170008366LI                         00000000 00000000
L016457610567018310770PARF830502JM4PARF830502MTCBDR06PABLO$RODRIGUEZ$FRANCISCA                         10100820170008366LI                         00000000 00000000
L016457610502178488033CAPF840611ES7CAPF840611MYNHTL07CAHUM$PAT$FELICIANA                               10100820170008366LI                         00000000 00000000
L016457610508179115731CAPL9107089H5CAPL910708MYNHTT01CAHUM$PAT$LETICIA                                 10090820170008366LI                         00000000 00000000
L016457610503178321026HEHI830810FFAHEHI830810MTCRRS08HERNANDEZ$HERNANDEZ$MARIA ISABEL                  10090820170008366LI                         00000000 00000000
L016457610584018502801CAMR8502247Y6CAMR850224HYNNYP05CANUL$MAY$RUPERTO                                 10080820170008366LI                         00000000 00000000
L016457610582947424014SATG7409242C7SATG740924MCCLRD05SALAZAR $TORRES$MARIA GUADALUPE                   10100820170008366LI                         00000000 00000000
