L016457610510179824544CIAA9811137R2CIAA981113MQRXYL02CIAU$AYALA$ALONDRA                                10030620170008366LI                         00000000 00000000
L016457610582109310449CIAB930818JT3CIAB930818MQRXYT05CIAU$AYALA$BEATRIZ                                10030620170008366LI                         00000000 00000000
L016457610582885800290OERM580211J45OERM580211MYNJMR03OJEDA$RAMAYO$MIRIAM DE LOURDES                    10010620170008366LI                         00000000 00000000
L016457610555169882630PAKJ981225CW2PAKJ981225HYNNMS09PANTI$KUMUL$JESUS ADRIAN                          10030620170008366LI                         00000000 00000000
L016457610519149526162REDC950426NT8REDC950426MTCYNN15REYES$DENIS$CINTHYA ESPERANZA                     10010620170008366LI                         00000000 00000000
L016457610535169835796RUNV9808061RARUNV980806MQRLXS08RUELAS$NU#EZ$VASTI MODESTA                        10030620170008366LI                         00000000 00000000
L016457610503169433715AOMC940124LP4AOMC940124MQRCXR05ACOSTA$MEX$CAROLINA ISABEL                        10050620170008366LI                         00000000 00000000
L016457610523169721398NACE970911LS0NACE970911HCCLHV08NAAL$CHI$EVIE DARNELL                             10020620170008366LI                         00000000 00000000
L016457610582109232924AUGK921010EH4AUGK921010MQRGRR04AGUILAR$GARCIA$KAREN JOANA                        10010620170008366LI                         00000000 00000000
L016457610519159872993GOCE981013PR6GOCE981013HQRMMD06GOMEZ$CAAMAL$EDUARDO                              10010620170008366LI                         00000000 00000000
L016457610510168900982SADC890805K29SADC890805MTCNMR03SANTOS$DOMINGUEZ$CAROLINA                         10010620170008366LI                         00000000 00000000
L016457610526169930687NEOB990423DI7NEOB990423HMCGLR09NEGRETE$OLVERA$BRIAN ANDRES                       10070620170008366LI                         00000000 00000000
L016457610502178486888POLE840405NY2POLE840405HCSRPM04PORTILLO$LOPEZ$EMILIANO                           10070620170008366LI                         00000000 00000000
L016457610549149663111VEPL960829V68VEPL960829HTCLRS00VELASQUEZ$PEREZ$LUIS ENRIQUE                      10070620170008366LI                         00000000 00000000
L016457610582776002204CAMW6010179E4CAMW601017MYNHNL09CHAN$MENDOZA$WILMA NATIVIDAD                      10090620170008366LI                         00000000 00000000
L016457610584057700530CIUF77100435ACIUF771004MYNSRR00CISNEROS $URIBE$MARIA FRANCISCA                   10070620170008366LI                         00000000 00000000
L016457610506169483697COGO940619KS9COGO940619MCCCMD04COC$GOMEZ$ODILIA                                  10090620170008366LI                         00000000 00000000
L016457610517159374630GOEJ930314B3AGOEJ930314MVZNSY02GONZALEZ$ESPINOZA$JEYMY DENISS                    10070620170008366LI                         00000000 00000000
L016457610503178604470AAGL860910RI0AAGL860910MTCLMC03ALVAREZ$GOMEZ$LUCERO                              10070620170008366LI                         00000000 00000000
L016457610582087804942CAUL7810124I1CAUL781012MYNNCC03CANCHE$UICAB$LUCIANA                              10070620170008366LI                         00000000 00000000
L016457610556159747262CAJC970421GW8CAJC970421MTCRMR00CARRASCO$JIMENEZ$CRISTHELL                        10070620170008366LI                         00000000 00000000
L016457610582068604725CAPM861120D63CAPM861120MTCRRR01CARRILLO$PEREZ$MARISELA                           10070620170008366LI                         00000000 00000000
L016457610510160185004GOLG010226DV0GOLG010226MQRNPBA7GONZALEZ$LOPEZ$GABRIELA                           10090620170008366LI                         00000000 00000000
L016457610502156917417GUHG690910JLAGUHG690910MDFDRD00GUDI#O$HERNANDEZ$GUADALUPE                        10070620170008366LI                         00000000 00000000
L016457610581106200306HEAP6210289P0HEAP621028HVZRGL09HERNANDEZ$AGUILAR$PLACIDO                         10070620170008366LI                         00000000 00000000
L016457610502166262275MEQH620813TA0MEQH620813HYNDNP00MEDINA$QUEN$HIPOLITO                              10090620170008366LI                         00000000 00000000
L016457610502177843634MECM780805PI7MECM780805MCSNSG06MENDEZ$CASTILLO$MARIA MAGALI                      10070620170008366LI                         00000000 00000000
L016457610582987519301CUPC751202US6CUPC751202MQRPTR09CUPUL $PAT$CARMELINA                              10130620170008366LI                         00000000 00000000
L016457610582129601066CACX9610152J4CXCA961015HQRNHM01CAN$CHAN$AMILCAR RICARDO                          10090620170008366LI                         00000000 00000000
L016457610505159117018AAME911119HE4AAME911119MQRLRS08ALVAREZ$ MORALES$ESPERANZA                        10160620170008366LI                         00000000 00000000
L016457610513008129556SAPB810720J4ASAPB810720MHGNLR01SANCHEZ$PALOMARES$BARBARA ARLETE                  10160620170008366LI                         00000000 00000000
L016457610538159726488DOPY971120NLADOPY971120MCSMRS07DOMINGUEZ$PEREZ$YUSELI HERMANDINA                 10160620170008366LI                         00000000 00000000
L016457610508179474278JIGE940320F97JIGE940320MTCMRL02JIMENEZ$GARCIA$ELIBETH                            10160620170008366LI                         00000000 00000000
L016457610582099315655MALE931008LN4MALE931008MQRRPS05MARROQUIN$LOPEZ$MARIA ESTHER                      10190620170008366LI                         00000000 00000000
L016457610502178075509SEGP800607BQ6SEGP800607MTCGMR03SEGURA$GOMEZ$PERLA GENY                           10160620170008366LI                         00000000 00000000
