L016457610557169896263ACOPA                      LOPEZ                      ALEXIS JOVANY              00000000000000016072017     0207400544       1                  9
L016457610503157702436ALEJANDRO                  KOH                        AURELIO                    00000000000000026052017     0207400549       1                  9
L016457610582988048912BIBIANO                    FLORES                     JUAN                       00000000000000016072017     0207400564       1                  9
L016457610582058643790CAAMAL                     DZIB                       JOSE ARSENIO               00000000000000019052017     0207400569       1                  9
L016457610584118705445CETINA                     PECH                       JAIME ALBERTO              00000000000000005072017     0207400584       1                  9
L016457610584927216402CHAN                       HUCHIM                     JOSE MAMERTO               00000000000000013072017     0207400585       1                  9
L016457610582987722590CHARINES                   LORIA                      ALMA ROSA                  00000000000000019052017     0207400586       1                  9
L016457610582118817897CIAU                       POOL                       JOSE ALFREDO               00000000000000010082017     0207400590       1                  9
L016457610502178860579CORONEL                    DENIS                      CLAUDIA ESTELA             00000000000000016062017     0207400595       1                  9
L016457610508149422209CORTEZ                     HERNANDEZ                  IGNACIA GUADALUPE          00000000000000016072017     0207400596       1                  9
L016457610503167735814CRUZ                       HERNANDEZ                  CANDELARIA                 00000000000000024072017     0207400602       1                  9
L016457610582126400199GOMEZ                      VAZQUEZ                    MARIA                      00000000000000016072017     0207400623       1                  9
L016457610582078861323GOMEZ                      MENDEZ                     MARIA                      00000000000000017082017     0207400625       1                  9
L016457610583877000915GUZMAN                     GARCIA                     DANELIA                    00000000000000024072017     0207400633       1                  9
L016457610582096000185HERNANDEZ                  PEREZ                      JACINTO                    00000000000000005072017     0207400639       1                  9
L016457610582067203966JIMENEZ                    REYNA                      ETELVINA                   00000000000000005072017     0207400648       1                  9
L016457610503179371749JIMENEZ                    JIMENEZ                    ANALLELY                   00000000000000025072017     0207400651       1                  9
L016457610582008233429MENDOZA                    MENDOZA                    ABRAHAM                    00000000000000025072017     0207400681       1                  9
L016457610596025800861MIRANDA                    ARPIDE                     MARIA DEL CARMEN           00000000000000016062017     0207400682       1                  9
L016457610582785902394MIS                        UCAN                       ANDRES PORFIRIO            00000000000000008052017     0207400684       1                  9
L016457610582109408219MORALES                    MORENO                     FERNANDO                   00000000000000027072017     0207400691       1                  9
L016457610501018006658MUÑOZ                      PICHARDO                   VICTOR                     00000000000000004082017     0207400695       1                  9
L016457610582087802938NAVA                       LAOS                       ANITA                      00000000000000009082017     0207400700       1                  9
L016457610539957309659ORTEGA                     JIMENEZ                    JULIO FABIAN               00000000000000018082017     0207400705       1                  9
L016457610554159563235PAT                        CAAMAL                     GREGORIA                   00000000000000017082017     0207400711       1                  9
L016457610582096900988PEREZ                      CRUZ                       JULIA MINERVA              00000000000000024072017     0207400713       1                  9
L016457610582028529160PEREZ                      SANCHEZ                    SARA                       00000000000000005072017     0207400716       1                  9
L016457610505179880546PEREZ                      MENDEZ                     KAREN MISHEL               00000000000000016062017     0207400719       1                  9
L016457610503159475064QUIX                       YAT                        REGINA                     00000000000000009082017     0207400722       1                  9
L016457610583826110344REGUERO                    HERNANDEZ                  FRANCISCO                  00000000000000007072017     0207400726       1                  9
L016457610558159612801ROJAS                      CASTELLANOS                ARMANDO                    00000000000000007062017     0207400734       1                  9
L016457610538159238203SANCHEZ                    BRAVO                      WILLIAMS                   00000000000000006072017     0207400737       1                  9
L016457610502166879144TORRES                     MURRILLO                   BEATRIZ                    00000000000000016062017     0207400752       1                  9
L016457610505158506492UC                         CEN                        SEBASTIANA                 00000000000000002072017     0207400758       1                  9
L016457610582119211793UICAB                      GONZALEZ                   MARIA VIRGINIA             00000000000000013062017     0207400760       1                  9
L016457610525159828216UICAB                      GONZALEZ                   RODOLFO                    00000000000000001052017     0207400761       1                  9
L016457610582824900243VALENCIA                   AKE                        ELOY ENRIQUE               00000000000000022052017     0207400762       1                  9
L016457610582038710172ZAMUDIO                    LAYNES                     RUT                        00000000000000022052017     0207400774       1                  9
L016457610505158901545CARRERA                    MENDEZ                     ANELY                      00000000000000005062017     0207400806       1                  9
L016457610502157298882DE LA CRUZ                 RODRIGUEZ                  JUANA                      00000000000000019052017     02074001020      1                  9
L016457610582078526678ROSALES                    CHULIN                     ROSALINDA                  00000000000000024052017     02074001135      1                  9
L016457610582078974456GARCIA                     LARA                       MAYRA                      00000000000000024052017     02074001136      1                  9
L016457610504168413575CRUZ                       LOPEZ                      USTRALIA                   00000000000000016062017     02074001143      1                  9
L016457610582058215128CHAN                       XOOL                       REYNA ESTHER               00000000000000006072017     02074001145      1                  9
L016457610582008404061CAUICH                     CANCHE                     ALFREDO                    00000000000000028072017     02074001154      1                  9
L016457610503179693316BECERRA                    AGUILERA                   YULISA                     00000000000000016062017     02074001155      1                  9
L016457610582058511815SOSA                       ARENAS                     ROSAURA                    00000000000000006072017     02074001156      1                  9
L016457610532169884726LOPEZ                      TORRES                     VIRGINIA                   00000000000000025072017     02074001160      1                  9
L016457610582139429326PASTRANA                   CARRILLO                   WILBERTH GIBRAN            00000000000000021072017     02074001161      1                  9
L016457610503157105739BRICEÑO                    JIMENEZ                    MIGUEL ANGEL               00000000000000021072017     02074001173      1                  9
L016457610582109211373GONZALEZ                   DE LA CRUZ                 FLORI DEL CARMEN           00000000000000019052017     02074001177      1                  9
L016457610548997927396DOMINGUEZ                  VIVIANO                    MARIA DEL CARMEN           00000000000000005072017     02074001182      1                  9
L016457610508169605451HERNANDEZ                  CRUZ                       ESTELA                     00000000000000021072017     02074001185      1                  9
L016457610582066903475MAYO                       GUZMAN                     JUANA                      00000000000000021062017     02074001200      1                  9
L016457610584017304498POMOL                      TZIU                       MARIA BENITA               00000000000000016062017     02074001203      1                  9
L016457610582137300818CHALE                      CHALE                      MARIA DEL SOCORRO          00000000000000006072017     02074001204      1                  9
L016457610568169636179COLOMO                     COLOMO                     AMPARO                     00000000000000006072017     02074001206      1                  9
L016457610582038237101LOPEZ                      BARAHONA                   MARCELINO                  00000000000000006072017     02074001212      1                  9
L016457610582109310464MOO                        CHI                        CRESCENCIO                 00000000000000013072017     02074001213      1                  9
L016457610517158963037GOMEZ                      LOPEZ                      PATRICIA JANETH            00000000000000013072017     02074001214      1                  9
L016457610549169884381PASTRANA                   CARRILLO                   MARIA GUADALUPE            00000000000000010082017     02074001217      1                  9
L016457610582906809890BRITO                      ROMAN                      MARCO ANTONIO              00000000000000001062017     02074001220      1                  9
L016457610502159435912DE LA O                    PEREZ                      SONIA LIDIA                00000000000000011072017     02074001226      1                  9
L016457610583978213458ALEJO                      MATEO                      ORALIA                     00000000000000002062017     02074001230      1                  9
L016457610535149277770LOPEZ                      PEREZ                      ROXANA                     00000000000000016062017     02074001231      1                  9
L016457610508179404366LUNA                       PEREZ                      SELENA                     00000000000000021062017     02074001232      1                  9
L016457610508179538999COLLAZO                    HERNANDEZ                  MARIA                      00000000000000024072017     02074001233      1                  9
L016457610582109213007VELAZQUEZ                  ALVAREZ                    MARIA ISABEL               00000000000000010082017     02074001235      1                  9
L016457610502176531479GONZALEZ                   ORTIZ                      CAROLINA                   00000000000000016062017     02074001256      1                  9
L016457610505179243836SANCHEZ                    JIMENEZ                    MARIA CONCEPCION           00000000000000005072017     02074001257      1                  9
L016457610585169893121AGUILAR                    LOPEZ                      ALONDRA NAYELY             00000000000000022062017     02074001259      1                  9
L016457610582076200151LOPEZ                      RAMIREZ                    DOMINGA NIEVES             00000000000000013062017     02074001263      1                  9
L016457610565896730234ORTIZ                      HERMOSO                    ALFREDO                    00000000000000007062017     02074001265      1                  9
L016457610582099302695CAMINO                     LOPEZ                      NOEMI                      00000000000000013062017     02074001266      1                  9
L016457610583048110254SOSA                       CORDOVA                    ELIHOREF DEL CARMEN        00000000000000007082017     02074001271      1                  9
L016457610555169882630PANTI                      KUMUL                      JESUS ADRIAN               00000000000000006072017     02074001278      1                  9
L016457610519149526162REYES                      DENIS                      CINTHYA ESPERANZA          00000000000000010082017     02074001279      1                  9
L016457610535169835796RUELAS                     NUÑEZ                      VASTI MODESTA              00000000000000006072017     02074001280      1                  9
L016457610511169792139GUTIERREZ                  MORENO                     VICTOR EVER                00000000000000013062017     02074001282      1                  9
L016457610531169839359JIMENEZ                    MENDOZA                    ELIA ROSI                  00000000000000013062017     02074001283      1                  9
L016457610582997723372MARTINEZ                   GONZALEZ                   SARA                       00000000000000013062017     02074001284      1                  9
L016457610523169721398NAAL                       CHI                        EVIE DARNELL               00000000000000017082017     02074001285      1                  9
L016457610564149614741ACUÑA                      PEREZ                      SANTO RAYMUNDO             00000000000000016062017     02074001287      1                  9
L016457610513169704304LOPEZ                      GUTIERREZ                  EDY MAGALI                 00000000000000013062017     02074001288      1                  9
L016457610519159872993GOMEZ                      CAAMAL                     EDUARDO                    00000000000000029072017     02074001290      1                  9
L016457610510168900982SANTOS                     DOMINGUEZ                  CAROLINA                   00000000000000009082017     02074001291      1                  9
L016457610502178486888PORTILLO                   LOPEZ                      EMILIANO                   00000000000000024072017     02074001304      1                  9
L016457610549149663111VELASQUEZ                  PEREZ                      LUIS ENRIQUE               00000000000000021072017     02074001305      1                  9
L016457610584057700530CISNEROS                   URIBE                      MARIA FRANCISCA            00000000000000025072017     02074001309      1                  9
L016457610506169483697COC                        GOMEZ                      ODILIA                     00000000000000025072017     02074001310      1                  9
L016457610517159374630GONZALEZ                   ESPINOZA                   JEYMY DENISS               00000000000000016072017     02074001311      1                  9
L016457610503178604470ALVAREZ                    GOMEZ                      LUCERO                     00000000000000013072017     02074001312      1                  9
L016457610590129201860ANTONIO                    ORDOÑEZ                    LAURA REBECA               00000000000000016062017     02074001313      1                  9
L016457610582087804942CANCHE                     UICAB                      LUCIANA                    00000000000000007082017     02074001314      1                  9
L016457610582068604725CARRILLO                   PEREZ                      MARISELA                   00000000000000013072017     02074001316      1                  9
L016457610502156917417GUDIÑO                     HERNANDEZ                  GUADALUPE                  00000000000000023072017     02074001318      1                  9
L016457610502166262275MEDINA                     QUEN                       HIPOLITO                   00000000000000025072017     02074001321      1                  9
L016457610502177843634MENDEZ                     CASTILLO                   MARIA MAGALI               00000000000000007072017     02074001322      1                  9
L016457610582987519301CUPUL                      PAT                        CARMELINA                  00000000000000021062017     02074001323      1                  9
L016457610582129601066CAN                        CHAN                       AMILCAR RICARDO            00000000000000013072017     02074001326      1                  9
L016457610505159117018ALVAREZ                     MORALES                   ESPERANZA                  00000000000000017082017     02074001329      1                  9
L016457610538159726488DOMINGUEZ                  PEREZ                      YUSELI HERMANDINA          00000000000000021072017     02074001331      1                  9
L016457610508179474278JIMENEZ                    GARCIA                     ELIBETH                    00000000000000022072017     02074001332      1                  9
L016457610582099315655MARROQUIN                  LOPEZ                      MARIA ESTHER               00000000000000013072017     02074001333      1                  9
L016457610502178075509SEGURA                     GOMEZ                      PERLA GENY                 00000000000000024072017     02074001334      1                  9
L016457610583135800718DOMINGUEZ                  HERNANDEZ                  CONCEPCION                 00000000000000020082017     02074001336      1                  9
L016457610510179526495RAMIREZ                    LOPEZ                      MIRSA KARINA               00000000000000026072017     02074001338      1                  9
L016457610508158612195HERNANDEZ                  MUÑOZ                      OLGA LIDIA                 00000000000000006072017     02074001339      1                  9
L016457610507907218007SANCHEZ                    DOMINGUEZ                  YOLANDA                    00000000000000021082017     02074001340      1                  9
L016457610502178312175ESCALANTE                  ESCALANTE                  ARCELIA                    00000000000000026072017     02074001341      1                  9
L016457610582129238018GUTIERREZ                  YAH                        MARIA ENEDINA              00000000000000008082017     02074001342      1                  9
L016457610582129450142HERNANDEZ                  OLETA                      JUAN                       00000000000000009082017     02074001343      1                  9
L016457610583988258956XOTLA                      CRUZ                       AURORA                     00000000000000009082017     02074001344      1                  9
L016457610502177978448RICARDEZ                   HERNANDEZ                  MARIA INES                 00000000000000029072017     02074001354      1                  9
L016457610582119508248GUZMAN                     GUTIERREZ                  VICTOR UVER                00000000000000026072017     02074001355      1                  9
L016457610502177754096ABRAJAN                    MONTERO                    DIANA                      00000000000000007082017     02074001356      1                  9
L016457610582089110413RAMOS                      ANDRADE                    EDUARDO FRANCISCO          00000000000000021082017     02074001357      1                  9
L016457610511169408074MENDEZ                     SANCHEZ                    REYNA DOLORES              00000000000000027072017     02074001359      1                  9
L016457610502168584593HERNANDEZ                  RUIZ                       ADRIANA                    00000000000000021082017     02074001370      1                  9
L016457610510179423347HU                         HAU                        ANA GABRIELA               00000000000000024072017     02074001377      1                  9
L016457610581139100226POOT                       BARRERAS                   NEIL OLIVER                00000000000000025072017     02074001378      1                  9
L016457610503179680917SALAYA                     SALAYA                     MAYRA                      00000000000000003082017     02074001382      1                  9
L016457610553088733133CAMPUZANO                  VILLASEÑOR                 VICTOR ALFONSO             00000000000000007082017     02074001383      1                  9
L016457610583876504206BOLAINA                    CASTAÑEDA                  ELEUTERIO                  00000000000000018082017     02074001388      1                  9
L016457610503169880410POOT                       NIC                        NEYDI AVIMERALI            00000000000000003082017     02074001390      1                  9
L016457610594127200551ALTAMIRANO                 ANDRES                     IMELDA                     00000000000000016082017     02074001400      1                  9
L016457610501038200851CAMARENA                   MORENO                     DEIFILIA                   00000000000000024072017     02074001407      1                  9
L016457610584086701095GALAZ                      CAAMAL                     AUSTRIA AURORA             00000000000000010082017     02074001409      1                  9
L016457610582048322414AGUILAR                    DIAZ                       GABRIELA GUADALUPE         00000000000000010082017     02074001414      1                  9
L016457610535149648913FLORES                     RODRIGUEZ                  MARIO ALBERTO              00000000000000003082017     02074001415      1                  9
L016457610583967809878JIMENEZ                    SANCHEZ                    LUIS ALFONSO               00000000000000010082017     02074001417      1                  9
L016457610561169732114PALOMEQUE                  VADAL                      JOSE RODOLFO               00000000000000005082017     02074001418      1                  9
L016457610582149800342TAMAYO                     PALOMO                     RAYLIN ELIZABETH           00000000000000021082017     02074001419      1                  9
L016457610505178910393BAUTISTA                   ALVAREZ                    EMMA GUADALUPE             00000000000000010082017     02074001427      1                  9
L016457610565078100636GONZALEZ                   MONTES                     SUGEY                      00000000000000003082017     02074001432      1                  9
L016457610583876718988DE LA O                    ALMEIDA                    MARCOS                     00000000000000017082017     02074001435      1                  9
L016457610533008294457RAMIREZ                    MATIAS                     DIANA                      00000000000000021082017     02074001436      1                  9
L016457610508179254324PERALTA                    PEREZ                      IZAMAR                     00000000000000011082017     02074001440      1                  9
L016457610582078518915MORENO                     OVANDO                     LAURA ESTELA               00000000000000003082017     0207400694       1                  9
L016457610582088815749LOPEZ                      DIAZ                       ROSALBA                    00000000000000010082017     02074001458      1                  9
