L016457610582776002204CAMW6010179E4CAMW601017MYNHNL09CHAN$MENDOZA$WILMA NATIVIDAD                      10090620170008366LI                         00000000 00000000
L016457610510160185004GOLG010226DV0GOLG010226MQRNPBA7GONZALEZ$LOPEZ$GABRIELA                           10090620170008366LI                         00000000 00000000
L016457610513008129556SAPB810720J4ASAPB810720MHGNLR01SANCHEZ$PALOMARES$BARBARA ARLETE                  10160620170008366LI                         00000000 00000000
L016457610513159992083LEOA990104NV9LEOA990104HHGNRL03LEONEL$ORTEGA$ALEXANDER EMANUEL                   10220620170008366LI                         00000000 00000000
L016457610529169857371GUYL9806257D8GUYL980625MQRTHC02GUTIERREZ$YAH$LUCIA GUILLERMINA                   10180620170008366LI                         00000000 00000000
L016457610502177465297MOPR740318JY1MOPR740318MTCNRC07MONTEJO$PERALTA$ROCIO                             10010720170008366LI                         00000000 00000000
L016457610572846615515VEGR6604168IAVEGR660416MGRLLC09VELAZQUEZ$GALEANA$ROCIO                           10040720170008366LI                         00000000 00000000
L016457610582997926165OERL791103QN0OERL791103HYNLJS07OLVERA$ROJAS$JOSE LUIS MARTIN                     10010820170000000LI                         00000000 00000000
L016457610521068215561MEHG821212FF5MEHG821212MCSNRD04MENDEZ$HERNANDEZ$GUADALUPE                        10060720170008366LI                         00000000 00000000
L016457610502176636278LOLA660505G58LOLA660505MCSPPD02LOPEZ$LOPEZ$ADELITA                               10060720170008366LI                         00000000 00000000
L016457610582129604482MASE960308FC9MASE960308MYNYRS08MAY$SARABIA$ESTEFANNY BEATRIZ                     10060720170008366LI                         00000000 00000000
L016457610567826659699JEMJ660301RS9JEMJ660301HVZRNN02JEREZANO$MONTEJO$JUAN JOSE                        10010720170008366LI                         00000000 00000000
L016457610502178299547LUPS820204TB3LUPS820204MYNCLR01LUCAS$POOL$SARA NOEMI                             10060720170008366LI                         00000000 00000000
L016457610582048730657AOQP871105B58AOQP871105MVZNZT07ANTONIO$QUEZADA$PATRICIA                          10100720170008366LI                         00000000 00000000
L016457610582058775097CACI870704CL6CACI870704MQRHLL01CHAN$COLLI$ILEANA CONSTANSA                       10070720170008366LI                         00000000 00000000
L016457610582067507523MOPL7511184K0MOPL751118MTCNRD06MONTEJO$PERALTA$LOIDA                             10100720170008366LI                         00000000 00000000
L016457610582906932817NIHG650930U8ANIHG650930MYNCXL02NIC$HAU$GLORIA SOFIA                              10060720170008366LI                         00000000 00000000
L016457610582139345142RAHC930427EF4RAHC930427MCSMRR02RAMOS$HERNANDEZ$CORNELIA                          10060720170008366LI                         00000000 00000000
L016457610582028420931UICI840103LUAUICI840103MYNCHD06UICAB$CHI$MARIA IDELFONZA                         10110720170008366LI                         00000000 00000000
L016457610581139314389PEHF931217NW9PEHF931217HTCRRR01PEREZ$HERNANDEZ$FERNANDO JAVIER                   10130720170008366LI                         00000000 00000000
L016457610582038619019POKL860211EDAPOKL860211MQRTLC08POOT$KAUIL$LUCI MARIBEL                           10160720170008366LI                         00000000 00000000
L016457610572068407245RIME841122P53RIME841122HGRSRL07RIOS$MARIN$ELIEZER                                10160720170008366LI                         00000000 00000000
L016457610572169904389UCPE990923FH6UXCP990923HQRCND09UC $CAN$PEDRO DE JESUS                            10160720170008366LI                         00000000 00000000
L016457610582087000442HEGC700716AJ4HEGC700716MCSRMR13HERNANDEZ$GOMEZ$MARIA DEL CARMEN                  10160720170008366LI                         00000000 00000000
L016457610582988064521HEHM801015SA5HEHM801015MVZRRG09HERNANDEZ$HERNANDEZ$MAGNOLIA ELIZABETH            10160720170008366LI                         00000000 00000000
L016457610582078706411LOER871105AD8LOER871105MCSPNS09LOPEZ$ENCINO$ROSA                                 10160720170008366LI                         00000000 00000000
L016457610540169938368MESA990122NP6MESA990122MCSNNN00MENDEZ$SANCHEZ$ANA GABRIELA                       10160720170008366LI                         00000000 00000000
L016457610535159868922OOPA980201J97OOPA980201MQRCVR03OCHOA$POVEDANO$ARIANELL                           10180720170008366LI                         00000000 00000000
L016457610503178413799BATL840603GA0BATL840603MQRLKD03BALAM$TUC$LIDIA                                   10160720170008366LI                         00000000 00000000
L016457610503148496411SAHC841030DF2SAHC841030MCSNRN00SANCHEZ$HERNANDEZ$CANDELARIA                      10160720170008366LI                         00000000 00000000
L016457610526179846329GOJO981004BV0GOJO981004HQRMRR01GOMEZ$JUAREZ$JOSE ORLANDO                         10160720170008366LI                         00000000 00000000
L016457610582036900452GASM680610PL9GASM680610MVZRNR10GARCIA$SANCHEZ$MARGARITA                          10200720170008366LI                         00000000 00000000
L016457610582089219149SALM920212C13SALM920212MCSNPN08SANCHEZ$LOPEZ$MANUELA                             10200720170008366LI                         00000000 00000000
L016457610582038710172ZALR870301FQ5ZALR870301MCCMYT17ZAMUDIO$LAYNES$RUT                                10200720170008366LI                         00000000 00000000
L016457610582998201949CADD821229SF6CADD821229HVZRZV02CARRERA$DIAZ$DAVID                                10270720170008366LI                         00000000 00000000
L016457610548169923983RUJG990710I64RUJG990710HGRNMN07RUANO$JAIMES$GONZALO                              10240720170008366LI                         00000000 00000000
L016457610519179743927MEMS971107I46MEMS971107MCSNNL02MENDEZ$MENDEZ$SULAMITA                            10260720170008366LI                         00000000 00000000
L016457610571926955106MEMV6901315Z0MEMV690131HCSNNC06MENDEZ$MONTOYA$VICTOR                             10260720170008366LI                         00000000 00000000
L016457610539957517814AEAL751101RDAAEAL751101HDFLLS09ALEMAN$ALVAREZ$LUIS SANTOS                        10250720170008366LI                         00000000 00000000
L016457610507169622458SAHA961001Q58SAHA961001MCSNRN01SANTIZ$HEREDIA$ANGELINA                           10280720170008366LI                         00000000 00000000
L016457610583937711972JIHG7701031U0JIHG770103MTCMRN04JIMENEZ$HERNANDEZ$GENOVEVA                        10250720170008366LI                         00000000 00000000
L016457610567896583183SEPA650416K65SEPA650416HVZGRL06SEGURA$PEREZ$ALFREDO                              10290720170008366LI                         00000000 00000000
L016457610528907324066DEMA730717V25DEMA730717HVZLRL03DELGADO$MARTINEZ$ALEJANDRO ENRIQUE                10260720170008366LI                         00000000 00000000
L016457610582129114243SADY911015QU0SADY911015MYNNRC07SANTIAGO$DORANTES$YICE#A MARICRUZ                 10250720170008366LI                         00000000 00000000
L016457610562149615817MEPJ9603298S5MEPJ960329MCSNRS09MENDEZ$PEREZ$MARIA DE JESUS                       10240720170008366LI                         00000000 00000000
L016457610510866615155HEMJ660416EW5HEMJ660416MCSRRS06HERNANDEZ$MORALES$JOSEFINA                        10240720170008366LI                         00000000 00000000
L016457610502176728471EACE6702258GAEXAC670225MYNKZC09EK$AZUETA$MARIA CECILIA                           10250720170008366LI                         00000000 00000000
L016457610502167789805MOAI770417FC1MOAI770417MCSRGR01MORALES$AGUILAR$IRMA                              10270720170008366LI                         00000000 00000000
L016457610510169457552NUHA9410182W1NUHA941018MCSXRN00NU#EZ$HERNANDEZ$ANA LIDIA                         10250720170008366LI                         00000000 00000000
L016457610526159884159CACC981103P3ACACC981103MQRHHD07CHAN $CAHUN$CEIDY LIZBETH                         10250720170008366LI                         00000000 00000000
L016457610526179904482PECN9904126SAPECN990412MQRCHY06PECH$CAHUN$NEYSI BEATRIZ                          10250720170008366LI                         00000000 00000000
L016457610502176858336GAZI6811193E9GAZI681119MVZRRG08GARCIA$ZARATE$IGNACIA                             10240720170008366LI                         00000000 00000000
L016457610505158901545CAMA890828FB5CAMA890828MVZRNN06CARRERA$MENDEZ$ANELY                              10010820170000000LI                         00000000 00000000
L016457610525159828216UIGR9806064F9UIGR980606HYNCND00UICAB$GONZALEZ$RODOLFO                            10030820170008366LI                         00000000 00000000
L016457610558159612801ROCA960526ET8ROCA960526HDFJSR04ROJAS$CASTELLANOS$ARMANDO                         10030820170008366LI                         00000000 00000000
L016457610582824900243VAAE4912012E6VAAE491201HYNLKL19VALENCIA$AKE$ELOY ENRIQUE                         10030820170008366LI                         00000000 00000000
L016457610502157298882CURJ720919GM6CURJ720919MTCRDN01DE LA CRUZ$RODRIGUEZ$JUANA                        10030820170008366LI                         00000000 00000000
L016457610505179243836SAJC920410BEASAJC920410MTCNMN08SANCHEZ$JIMENEZ$MARIA CONCEPCION                  10030820170008366LI                         00000000 00000000
L016457610582106700634GUBA670918KM5GUBA670918MCSRRN08GUIRAO$BERMUDEZ$MARIA DE LOS ANGELES              10030820170008366LI                         00000000 00000000
L016457610557169847860CACJ980127IF9CACJ980127HYNNNN08CAN$CENTENO$JUAN JESUS                            10030820170008366LI                         00000000 00000000
L016457610582038604722CELS8601217Y2CELS860121HQRBZR09CEBALLOS$LIZAMA$SERGIO JOSUE                      10030820170008366LI                         00000000 00000000
L016457610585169782845CACE970122CDACACE970122HYNHHD05CHAN$CHAN$EDWIN GERARDO                           10040820170008366LI                         00000000 00000000
L016457610527179814846OALD980130996OALD980130HVZRRL07ORDAZ$LARA$DILEAN RAFAEL                          10030820170008366LI                         00000000 00000000
L016457610521917132256RAAH710413JH1RAAH710413MOCNLR03RANGEL$ALVAREZ$HERMENEGILDA                       10030820170008366LI                         00000000 00000000
L016457610503178620500AOTM860811874AOTM860811MVZLPR09ALFONSO$TAPIA$MARISELA                            10030820170008366LI                         00000000 00000000
L016457610510179499735OEAM940831EQ1OEAM940831MTCJRL09OJEDA$ARIAS$MAELY DEL CARMEN                      10030820170008366LI                         00000000 00000000
L016457610556149543607VATJ951125753VATJ951125MQRZRQ04VAZQUEZ$TORRES$JAQUELINE                          10030820170008366LI                         00000000 00000000
L016457610508159614935ZATD960306975ZATD960306HCSMRN01ZAMORANO$TRUJILLO$DANIEL                          10030820170008366LI                         00000000 00000000
L016457610502178858268LOLM8803299X1LOLM880329MTCPNR07LOPEZ$LEON$MARISELA                               10100820170008004LI                         00000000 00000000
L016457610558169717368SEGA9709156NASEGA970915HVZGRL02SEGURA$GARCIA$ALFREDO                             10070820170008366LI                         00000000 00000000
L016457610503178106807RAMD810926M93RAMD810926HCSMNN06RAMIREZ$MENDEZ$DANIEL DE JESUS                    10070820170008366LI                         00000000 00000000
L016457610582038336085CAFN830825TU4CAFN830825MQRBRC09CABALLERO$FARJAT$NACIRA MAGDALENA                 10110820170008366LI                         00000000 00000000
L016457610503168866907OERU880329UE9OERU880329HPLRZL08ORTEGA$RUIZ$ULISES                                10070820170008366LI                         00000000 00000000
L016457610581048601744PEDE860118QR0PEDE860118MCCRZL04PERALTA$DZIB$ELIANA ANGELICA                      10070820170008366LI                         00000000 00000000
L016457610505169838074MUCK980314JM1MUCK980314MQRXNT01MU#OZ$CANCHE$KATERIN JAQUELIN                     10070820170008366LI                         00000000 00000000
L016457610582099129916MAMY910802HQ6MAMY910802MQRGLS08MAGA#A$MOLINA$YESSICA ANDREA                      10080820170008366LI                         00000000 00000000
L016457610582997937774PECB791124LW5PECB791124HVZRRR01PEREZ$CRUZ$BERNARDINO                             10080820170008366LI                         00000000 00000000
L016457610582139308231POCH93112742APOCH931127HQRLNB06POOL$CANCHE$HEBER FRANCISCO                       10100820170008366LI                         00000000 00000000
L016457610583988100141FACL811113RPAFACL811113HTCJRS06FAJARDO$DE LA CRUZ$JOSE LUIS                      10070820170008366LI                         00000000 00000000
L016457610545097702869LAOV770101RR8LAOV770101MDFNLN08LANDEROS$OLARTE$VANESA IVONNE                     10070820170008366LI                         00000000 00000000
L016457610510179486906GUCD940914L4AGUCD940914MCCZRL08GUZMAN$CORNELIO$DULCE MARIA                       10070820170008366LI                         00000000 00000000
L016457610574159725600ROSG970408P80ROSG970408HVZDNN02RODRIGUEZ$SANCHEZ$GENEY                           10070820170008366LI                         00000000 00000000
L016457610502169021405RAMH9011123A2RAMH901112HCSMNC00RAMIREZ$MENDEZ$HECTOR MANUEL                      10070820170008366LI                         00000000 00000000
L016457610582068306891RERR830430UN3RERL850828MCSYDY02REYES$RODRIGUEZ$RIGOBERTO                         10070820170008366LI                         00000000 00000000
L016457610505159262426GEBY920522GJ0GEBY920522MQRRRN04GERVACIO$BARRERA$YANET MERELIN                    10090820170008366LI                         00000000 00000000
L016457610582089114431CAMM910708BD8CAMM910708MCCHNG07CHAB$MONTEJO$MARIA MAGDALENA                      10090820170008366LI                         00000000 00000000
L016457610582047702384RACO770224D56RACO770224MCSMRR02RAMIREZ$DE LA CRUZ$ORALIA                         10090820170008366LI                         00000000 00000000
L016457610503179371749JIJA9312312Z8JIJA931231MTCMMN05JIMENEZ$JIMENEZ$ANALLELY                          10090820170008366LI                         00000000 00000000
L016457610567018310770PARF830502JM4PARF830502MTCBDR06PABLO$RODRIGUEZ$FRANCISCA                         10100820170008366LI                         00000000 00000000
L016457610502178488033CAPF840611ES7CAPF840611MYNHTL07CAHUM$PAT$FELICIANA                               10100820170008366LI                         00000000 00000000
L016457610508179115731CAPL9107089H5CAPL910708MYNHTT01CAHUM$PAT$LETICIA                                 10090820170008366LI                         00000000 00000000
L016457610503178321026HEHI830810FFAHEHI830810MTCRRS08HERNANDEZ$HERNANDEZ$MARIA ISABEL                  10090820170008366LI                         00000000 00000000
L016457610584018502801CAMR8502247Y6CAMR850224HYNNYP05CANUL$MAY$RUPERTO                                 10080820170008366LI                         00000000 00000000
L016457610582947424014SATG7409242C7SATG740924MCCLRD05SALAZAR $TORRES$MARIA GUADALUPE                   10100820170008366LI                         00000000 00000000
L016457610524007909740SAMI7904035X4SAMI790403MVZNRR03SANTOS$MARTINEZ$IRLANDA                           10180820170008366LI                         00000000 00000000
L016457610545160042284TECD000711MS6TECD000711MQRCHF03TEC$CHALE$DAFNE BERENICE                          10170820170008366LI                         00000000 00000000
L016457610583016402030RORB640807C66RORB640807MTCSML07ROSALDO $RAMIREZ$BLANCA ESTELA                    10170820170008366LI                         00000000 00000000
L016457610517149348462SEPW930217A95SEPW930217MCLRRN02SERNA$PEREZ$WENDY SARAHI                          10220820170008366LI                         00000000 00000000
L016457610582098918442CACL890212T97CACL890212MQRNHR08CANTO$CAHUICH$LOURDES MARITZA                     10180820170008366LI                         00000000 00000000
L016457610502168877070MAAC880605IV0MAAC880605MTCRRR03MARTINEZ$AREVALO$CAROLINA                         10210820170008366LI                         00000000 00000000
L016457610521088313891LOLE830510NG1LOLE830510MTCPPL00LOPEZ$LOPEZ$ELEODILA                              10170820170008366LI                         00000000 00000000
L016457610502168182091SASV810521AT3SASV810521MCSNLR08SANCHEZ$SOLORZANO$VIRGINIA                        10210820170008366LI                         00000000 00000000
L016457610569169853632AESS980914UY8AESS980914MCSLNN08ALEJANDRO$SANCHEZ$SANDRA LUCIA                    10210820170008366LI                         00000000 00000000
